:020000040800F2
:10000000803C00209D010008FD1C00089913000899
:10001000F91C0008790600088B3E0008000000006B
:100020000000000000000000000000005D24000847
:10003000930D000800000000591E0008AD270008BD
:10004000B7010008B7010008B7010008B7010008B0
:10005000B7010008B7010008F90D0008A50E000857
:10006000B7010008B7010008C10E0008B701000879
:10007000CD060008B701000881070008B701000895
:10008000BD07000871080008B7010008B7010008A3
:10009000B7010008B7010008B7010008DD0E00082D
:1000A000B7010008B7010008B7010008B701000850
:1000B000B7010008B7010008A12A0008B70100082D
:1000C000B7010008B7010008B7010008B701000830
:1000D000B7010008D930000865340008D13700089E
:1000E000150E0008B7010008B7010008FD2B000835
:1000F000B7010008B7010008B7010008B701000800
:10010000B7010008B70100089D2B0008B7010008DF
:100110009D300008B7010008B7010008B7010008CA
:10012000AD080008B7010008DD080008B7010008A5
:10013000B7010008B7010008B7010008B7010008BF
:10014000B7010008B7010008B7010008B7010008AF
:1001500091090008450A0008810A000801390008D1
:10016000B7010008B7010008B7010008B70100088F
:10017000B7010008B7010008B7010008B70100087F
:10018000B7010008B7010008DFF80CD000F060F8F4
:1001900000480047454C0008803C00200648804746
:1001A00006480047FEE7FEE7FEE7FEE7FEE7FEE75C
:1001B000FEE7FEE7FEE7FEE7B52700088901000835
:1001C00040EA01039B0703D009E008C9121F08C0D9
:1001D000042AFAD203E011F8013B00F8013B521E59
:1001E000F9D27047D2B201E000F8012B491EFBD2D0
:1001F00070470022F6E710B513460A460446194632
:10020000FFF7F0FF204610BD10B5002200E0521CA1
:10021000835C8C5CA34201D1002BF8D1D8B2E1B24F
:10022000401A10BD30B50B460146002020220124A3
:1002300009E021FA02F59D4205D303FA02F5491BB4
:1002400004FA02F52844151EA2F10102F1DC30BDCA
:10025000064C074D06E0E06840F0010394E8070013
:1002600098471034AC42F6D3FFF792FF845700084A
:10027000A457000870B58C1810F8015B15F007033F
:1002800001D110F8013B2A1106D110F8012B03E02F
:1002900010F8016B01F8016B5B1EF9D12B0705D437
:1002A0000023521E0DD401F8013BFAE710F8013B80
:1002B000CB1A921C03E013F8015B01F8015B521E9C
:1002C000F9D5A142D8D3002070BD000000B59DB083
:1002D0000121444801F0C2FD0121080201F0EEFDB8
:1002E0000020049040480590404806900020079068
:1002F00005200890002009904FF480600A9040008B
:100300000B9080000C9040110D9040020E90002048
:100310000F900120109000201190129004A93448F1
:1003200000F0F8FC0121324800F0E8FB03208DF8D2
:100330000C0000208DF80F0001208DF80D00022028
:10034000029002A92B4800F041FF00201390149066
:100350001590169013A800F05BF800F087F80020C5
:10036000179001208DF860008DF861000020199031
:100370001B9001208DF8700017A91B484C3800F025
:1003800081F8042301220B2117484C3800F0A4F80F
:10039000012115484C3800F05EF8012112484C3814
:1003A00000F04EF8012110484C3800F025F80E48B6
:1003B0004C3800F0EDF8012210210D4800F08CFCC3
:1003C00038208DF8040000208DF8050002208DF8FB
:1003D000060001208DF8070001A801F091FC1DB076
:1003E00000BD0000040040004C200140C009002076
:1003F000106402400008024021B1826842F001020C
:10040000826003E0826822F001028260704700008F
:100410000021084A1168084A1140D0E900231A4314
:1004200083681A43C3681A431143044AC2F8041389
:100430007047000004230140E030FCFF0020014031
:1004400021B1826842F48072826003E0826822F403
:1004500080728260704721B1826842F400728260CB
:1004600003E0826822F400728260704710B50121B7
:10047000080201F033FD00214FF4807001F02EFDE1
:1004800010BD000030B50246002000235068104C1B
:1004900020400D790C6844EA0524204350609068A0
:1004A0000C4C2040D1E903542C438D682C434D79EA
:1004B00044EA450420439060D06A20F470000C7D2B
:1004C000641EE4B2234340EA0350D06230BD000012
:1004D000FFFEFFFCFDF7FFC0F0B504460D4600200F
:1004E0000021092D11DDE068A5F10A0606EB46079B
:1004F000072606FA07F18843A5F10A0606EB460629
:1005000003FA06F10843E0600CE0206905EB4507BB
:10051000072606FA07F1884305EB450603FA06F1BC
:1005200008432061072A0FDA606B561E06EB860728
:100530001F2606FA07F18843561E06EB860605FAC3
:1005400006F10843606322E00D2A0FDA206BD61F04
:1005500006EB86071F2606FA07F18843D61F06EB2F
:10056000860605FA06F10843206310E0E06AA2F16E
:100570000D0606EB86071F2606FA07F18843A2F14F
:100580000D0606EB860605FA06F10843E062F0BDAB
:10059000816841F080418160704700003EB50021D4
:1005A0000CE0334B33F811304DF8213001AC44F8F6
:1005B000213002AC44F821304B1CD9B20129F0DBC8
:1005C000002035E001222FE0294B03EB420333F8F2
:1005D000103001AC54F82040A34207D2244B03EB67
:1005E000420333F8103001AC44F82030204B03EBC9
:1005F000420333F8103002AC54F82040A34207D92C
:100600001B4B03EB420333F8103002AC44F82030AC
:10061000174B03EB420333F810305DF820402344BE
:100620004DF82030531CDAB2052ACDDB431CD8B27A
:100630000128C7DB002117E05DF821300524B3FB5A
:10064000F4F30C4C24F81130094C248840F6BC45D6
:1006500004FB05F3DC1703EB1454C4F30F34054D0E
:1006600025F811404B1CD9B20129E5DB3EBD000045
:10067000C00900205800002000BFFEE770B5034607
:100680000C4615460022002108E0585C5040C0B2DC
:10069000054E36F8100080EA2222491CA142F4D30C
:1006A00082EA050070BD00008253000829B1064AA5
:1006B00092680243044B9A6004E0034A92688243C2
:1006C000014B9A6070470000002004E010B52449F7
:1006D000244800F0CFFA00283DD02149214800F0FD
:1006E000F3F9204800F0C2FAC0F5FA601E4988808C
:1006F00008468088002817DD1C48007800EB400180
:10070000C1EBC0101A4901EB001017490860012025
:10071000887116480078401C144908700846007813
:10072000022801DB0020087012490E4800F0CCF9C5
:100730004FF4FA610B4800F019FB0C48007800EB0D
:100740004001C1EBC0100A4901EB00100A49886062
:10075000044800F0DFFA0949024800F0B5F910BD7D
:100760000088001028600240E0000020DC0000202B
:10077000E01E0020400F0010BC2E002000260010BC
:1007800010B50B490B4800F075FA78B108490948D3
:1007900000F09AF94FF0FA51064800F095F900215F
:1007A000044800F0ABF901200349C87110BD0000F6
:1007B0000080001858600240E000002010B5244975
:1007C000244800F057FA00283DD02149214800F084
:1007D0007BF9204800F04AFAC0F5FA601E4988808B
:1007E00008468088002817DD1C48007800EB40018F
:1007F000C1EBC0101A4901EB001017490860012035
:10080000887116480078401C144908700846007822
:10081000022801DB0020087012490E4800F054F94C
:100820004FF4FA610B4800F0A1FA0C48007800EB95
:100830004001C1EBC0100A4901EB00100A49886071
:10084000044800F067FA0949024800F03DF910BD7C
:100850000088002088600240D4000020D0000020E2
:10086000C80E0020400F0020A41E002000260020FB
:1008700010B50A490A4800F0FDF970B10749084867
:1008800000F022F90749064800F01EF9002104484B
:1008900000F034F901200449C87110BD0080202007
:1008A000A060024000003D20D400002010B508499F
:1008B000084800F0DFF928B1FFF770FE0449054849
:1008C00000F002F90449034800F0FEF810BD0000F2
:1008D00020800010106402400820001010B5244948
:1008E000244800F0C7F900283DD02149214800F0F4
:1008F000EBF8204800F0BAF9C0F57A701E498880FC
:1009000008468088002817DD1C48007800EB40016D
:10091000C1EBC0101A4901EBC00017490860012063
:10092000887116480078401C144908700846007801
:10093000022801DB0020087012490E4800F0C4F8BC
:100940004FF47A710B4800F011FA0C48007800EB74
:100950004001C1EBC0100A4901EBC0000A498860A0
:10096000044800F0D7F90949024800F0ADF810BD7D
:100970000080201040640240EC000020E8000020CD
:10098000F82E002000003D10043700200020181031
:1009900010B52449244800F06DF900283CD02149C5
:1009A000214800F091F8204800F060F9C0F164009F
:1009B0001E49888008468088002817DD1C4800787A
:1009C00000EBC00101EB00101A4901EB8000174950
:1009D00008600120887116480078401C144908708E
:1009E00008460078032801DB0020087012490E48F1
:1009F00000F06AF864210C4800F0B8F90C4800785F
:100A000000EBC00101EB00100A4901EB80000B492B
:100A10008860054800F07EF90949034800F054F861
:100A200010BD00000088002088640240C80000203B
:100A3000C4000020240D0020400F00208C0E002058
:100A40000026002010B50A490A4800F013F950B1F9
:100A50000749084800F038F801200749C87100210B
:100A6000044800F04BF80549024800F02DF810BD8D
:100A700000802020A0640240EC000020002008201C
:100A800010B50D490D4800F0F5F850B10A490B4872
:100A900000F01AF801200A49C8710021074800F047
:100AA0002DF84FF03D51054800F00EF80549034878
:100AB00000F00AF810BD000000800028B864024071
:100AC000C8000020002000220246094B9A4201D2B1
:100AD000084801E00648103801F000531BB1064BEE
:100AE0000B40C36002E0044B0B4083607047000082
:100AF00010640240006002407D0F7D0F21B102684A
:100B000042F00102026003E0026822F0010202608A
:100B100070470000016821F00101016000210160BF
:100B200041608160C1600161212141614A4988427F
:100B300004D13D21484A103A91608CE04649183171
:100B4000884205D14FF47461434A103A916082E0C3
:100B500041493031884205D14FF474113E4A103A70
:100B6000916078E03C494831884205D14FF074618A
:100B7000394A103A91606EE037496031884204D1B9
:100B80003649354A103AD16065E0334978318842B8
:100B900004D13349304A103AD1605CE02E4990319B
:100BA000884204D12F492C4A103AD16053E02A4997
:100BB000A831884205D14FF03D51274A103AD16003
:100BC00049E02949884204D13D21274A083A116069
:100BD00041E025491831884205D14FF47461224A19
:100BE000083A116037E020493031884205D14FF48E
:100BF00074111D4A083A11602DE01B4948318842A2
:100C000005D14FF07461184A083A116023E0164983
:100C10006031884204D11149134A121F11601AE051
:100C200011497831884204D10D490F4A121F1160D1
:100C300011E00D499031884204D10A490A4A121F35
:100C4000116008E00849A831884204D14FF03D51B5
:100C5000054A121F11607047106002403D000020DD
:100C6000400F002000003D2010640240014648680B
:100C700080B2704770B50246002000240025124E55
:100C8000B24201D2114B01E00F4B103B104E0E400F
:100C900036B11E2606EAD124166806EA040502E0EB
:100CA000566906F0800501F000560EB15C6800E060
:100CB0001C68084E344004EA010616B10DB101204B
:100CC00000E0002070BD000010640240006002409F
:100CD0003C0F3C0F7D0F7D0F10B501F080034BB131
:100CE00022B1436943F08003436103E0436923F089
:100CF0008003436180290BD02AB1036801F01E04F0
:100D00002343036004E0036801F01E04A34303606F
:100D100010BD000010B500220268134B1A40CC68C9
:100D20000B6823434C6923438C692343CC692343D9
:100D30000C6A23434C6A23438C6A23434C6B234342
:100D40008C6B23431A430260426922F00702D1E907
:100D50000B3423431A4342610B6943604B68836041
:100D60008B68C36010BD00003F801CF0416070477D
:100D70000021016041608160C16001614161816168
:100D8000C161016241628162C16201634163816349
:100D90007047704738B505460024002003460246D8
:100DA00001210090284600F02BFF0446601C10B97A
:100DB0004FF0FF3038BD01E000F0B2FDC4EBC400DD
:100DC000074901EB800000790028F5D00020C4EB32
:100DD000C401034A02EB8101087100BFEAE7000089
:100DE000CC090020012080F3108800BF704700204C
:100DF00080F3108800BF704710B5012000F08EF816
:100E00000348008820F00100401C0149088010BD03
:100E1000B400002010B54FF4805000F085F850B1B8
:100E20004FF4805000F07AF81D48008820F08000D0
:100E300080301B4908804FF4005000F075F858B11D
:100E40004FF4005000F06AF81548008820F48070D4
:100E500000F58070124908804FF4804000F064F87B
:100E600058B14FF4804000F059F80D48008820F444
:100E7000007000F500700A4908804FF4004000F04F
:100E800053F858B14FF4004000F048F80448008887
:100E900020F4806000F580600149088010BD0000EA
:100EA000B400002010B5022000F038F80348008894
:100EB00020F00200801C0149088010BDB400002011
:100EC00010B5102000F02AF80348008820F0100028
:100ED00010300149088010BDB400002010B520205A
:100EE00000F022F848B1202000F018F80A480088E5
:100EF00020F02000203008490880402000F014F83D
:100F000048B1402000F00AF80348008820F0400073
:100F100040300149088010BDB4000020014908603C
:100F200070470000143C014001460020034A12684B
:100F30000A400AB1012000E000207047143C014043
:100F4000002123498279002A3AD00A4612680368B0
:100F50009A430B461A600A1D126803689A430B1DD8
:100F60001A60027911440A6803681A430A60184A31
:100F70000832126803689A43154B08331A601A1D29
:100F8000126803689A43124B0C331A604279102A94
:100F90000ED11A1F126803681A430D4B08331A60EA
:100FA0001A1D126803681A43094B0C331A600DE0CE
:100FB0000749427911440A6803681A430A6005E048
:100FC000027911440A6803689A430A607047000076
:100FD000003C014010B5002401F034F901F062F941
:100FE000044604F46F40B0F56F4F03D127A002F020
:100FF0007BFF02E02EA002F077FFF62234490020AA
:1010000001F024F933A13248D830FFF7FDF8A8B138
:1010100034A002F069FFF6212D48FFF7EAF82DA26F
:101020003BA12B48D83002F06FFF0220284988806E
:101030000F204880F622002001F07BF935A002F055
:1010400053FF4FF4B66239494FF4805001F0FEF877
:1010500037A13B48FFF7D8F898B13AA002F044FF17
:101060004FF4B6613148FFF7C4F831A228A13448E3
:1010700002F04AFF4FF4B6622C494FF4805001F061
:1010800058F93BA002F030FF10BD000052656164CA
:101090002053504920466C61736820436869702072
:1010A000494420537563636573730D0A00000000A3
:1010B000526561642053504920466C617368204337
:1010C000686970204944204572726F720D0A0000F1
:1010D000940200204341525F4346475F494E464FCA
:1010E00000000000526561642043617250617261CA
:1010F000204572726F722C577269746520746F206C
:1011000044656661756C7420496E666F0D0A000057
:101110002573000052656164204361725061726101
:1011200020537563636573730D0A00008A03002002
:10113000524F5554455F4346475F494E464F000066
:101140001C0900205265616420526F75746520454A
:1011500072726F722C577269746520746F204465C7
:101160006661756C7420496E666F0D0A00000000A0
:101170005265616420526F757465205375636365B1
:1011800073730D0A0000000070B5044694F9005016
:1011900094F90000401C10B94FF0FF3070BD94F975
:1011A00000001E2802DB4FF0FF30F7E794F9001033
:1011B000C1EBC101044A02EB81001C21FFF719F8C1
:1011C000FF2020702846E9E7CC090020F0B50A4648
:1011D00000210023002400BF3DE0012505FA01F3B2
:1011E000156805EA03049C4234D105684F000326C4
:1011F000BE40B543056015794E00B54006683543DD
:1012000005601579012D02D01579022D16D185685A
:101210004F000326BE40B543856055794E00B5406A
:10122000866835438560456801268E40B543456034
:10123000456896798E40B6B235434560C5684F0023
:101240000326BE40B543C560D5794E00B540C6689B
:101250003543C560491C1029BFD3F0BDF0B500234C
:1012600000244D07ED0E02FA05F3CE1000F1200523
:1012700055F826504E07F70E0F26BE40B543CF1047
:1012800000F1200646F82750CE1000F1200555F851
:10129000265045EA0304CE1000F1200545F826400B
:1012A000F0BD418370470183704742694A40426103
:1012B0007047000000B589B0012000F0B1FE00BF0A
:1012C000612000F08DFE0028FAD00121082000F0F6
:1012D000D5FD40212C4801F00BFE012200212A48B7
:1012E00001F003FE0C20ADF814000020ADF816004C
:1012F0000120ADF818000C20ADF81A000020ADF860
:101300001C0005A9204801F0A7FD32208DF820001F
:1013100000208DF821008DF8220001208DF8230097
:1013200008A800F0EDFC0121174801F089FC00201D
:1013300015491031088001221021134801F0CCFD1D
:1013400000201249086000BF104800680228FBD145
:101350000D4801F081FC01A800F0D0FD0C480068A8
:1013600000F4E05038B90B4903980968B0FBF1F07C
:10137000C00009B000BD0398400006490968B0FBF1
:10138000F1F0C000F5E70000000C0040F80000207C
:1013900008380240FC00002000BFFEE70EB5032025
:1013A0008DF8080000208DF80A008DF809008DF8EE
:1013B0000B004FF6FF70019001A9FE48FFF706FFF2
:1013C00001A9FD48FFF702FF01A9FC48FFF7FEFE57
:1013D00001A9FB48FFF7FAFE01A9FA48FFF7F6FE5C
:1013E00000219E2000F03AFD01219F2000F036FDF3
:1013F0000121880300F062FD2020019001208DF87A
:10140000080000208DF80A0001208DF80B008DF8EF
:10141000090001A9EC48FFF7D9FE2021EA48FFF7AF
:1014200042FF4020019001A9E748FFF7CFFE40218D
:10143000E548FFF738FF8020019001A9E248FFF757
:10144000C5FE8021E048FFF72EFF0820019001A98A
:10145000D948FFF7BBFE0821D748FFF724FF20201B
:10146000019001A9D448FFF7B1FE2021D248FFF72F
:101470001AFF0120019001A9CE48FFF7A7FE012124
:10148000CC48FFF710FF4FF48070019001A9CC48C1
:10149000FFF79CFE4FF48071C948FFF704FF4FF43B
:1014A0000070019001A9C648FFF790FE4FF400714B
:1014B000C348FFF7F8FE4FF48060019001A9C048CF
:1014C000FFF784FE4FF48061BD48FFF7ECFE4FF458
:1014D0000040019001A9BA48FFF778FE4FF400419F
:1014E000B748FFF7E0FE4020019001A9B248FFF79E
:1014F0006DFE4021B048FFF7D4FE8020019001A985
:10150000AD48FFF763FE8021AB48FFF7CAFE4FF4FA
:101510008070019001A9A848FFF758FE4FF4807130
:10152000A548FFF7BEFE4FF48070019001A9A348C3
:10153000FFF74CFE4FF48071A048FFF7B2FE4FF466
:101540000070019001A99D48FFF740FE4FF4007123
:101550009A48FFF7A6FE4FF48060019001A99748D2
:10156000FFF734FE4FF480619448FFF79AFE4FF482
:101570000060019001A99148FFF728FE4FF4006137
:101580008E48FFF78EFE0420019000208DF80800A1
:101590008DF80A0001208DF80B008DF8090001A9D3
:1015A0008948FFF713FE0820019000208DF80800FD
:1015B0008DF80A0001208DF80B008DF8090001A9B3
:1015C0008148FFF703FE0120019000208DF80800FC
:1015D0008DF80A0001208DF80B008DF8090001A993
:1015E0007948FFF7F3FD0021084600F039FF01209C
:1015F00076490860002008710C204871012088712C
:101600000846FFF79DFC06208DF8000000208DF8AD
:10161000010001208DF802008DF80300684600F0FB
:101620006FFB0220019000208DF808008DF80A0061
:1016300001208DF80B008DF8090001A96248FFF721
:10164000C5FD0121002000F00BFF02206049086069
:10165000002008710C204871012088715B48FFF759
:101660006FFC07208DF8000000208DF8010001209C
:101670008DF802008DF80300684600F041FB102051
:10168000019000208DF808008DF80A0001208DF8E7
:101690000B008DF8090001A94B48FFF797FD0421C5
:1016A000002000F0DDFE10204A490860002008718B
:1016B0000C204871012088710846FFF741FC0A2080
:1016C0008DF8000000208DF8010001208DF8020047
:1016D0008DF80300684600F013FB202001900020E5
:1016E0008DF808008DF80A0001208DF80B008DF8A8
:1016F000090001A93248FFF769FD0521042000F027
:10170000AFFE202034490860002008710C20487189
:10171000012088710846FFF713FC17208DF80000A0
:1017200000208DF8010001208DF802008DF80300E3
:10173000684600F0E5FA4020019000208DF808008E
:101740008DF80A0001208DF80B008DF8090001A921
:101750001B48FFF73BFD0621042000F081FE4020DE
:101760001E490860002008710C2048710120887112
:101770000846FFF7E5FB17208DF8000000208DF8E4
:10178000010001208DF802008DF80300684600F08A
:10179000B7FA4FF48050019000208DF808008DF8C2
:1017A0000A0001208DF80B008DF8090001A90348FB
:1017B00016E000000004024000080240000C024055
:1017C00000100240001C0240000002406C0000209B
:1017D000740000207C000020840000208C00002089
:1017E000FFF7F4FC0C21032000F03AFE4FF4805088
:1017F00030490860002008710C2048710120887170
:101800000846FFF79DFB28208DF8000000208DF88A
:10181000010001208DF802008DF80300684600F0F9
:101820006FFA4FF40050019001A92348FFF7CEFC56
:101830000D21032000F014FE4FF400501F490860F2
:10184000002008710C204871012088710846FFF7BC
:1018500077FB4FF48040019001A91748FFF7B6FCD1
:101860000E21032000F0FCFD4FF480401449086075
:10187000002008710C204871012088710846FFF78C
:101880005FFB4FF40040019001A90B48FFF79EFC5D
:101890000F21032000F0E4FD4FF4004009490860E7
:1018A000002008710C204871012088710846FFF75C
:1018B00047FB0EBD94000020000C02409C0000205D
:1018C000A4000020AC00002010B500BF01210803D7
:1018D000FEF7ECFE45F2555000F036F8062000F019
:1018E00027F8FFF7E7FC094908600846006800EBA5
:1018F000C00101EB0010040AC4F30B0000F01EF855
:1019000000F00EF800F004F810BD0000F400002014
:101910004CF6CC40014908607047000000300040A0
:101920004AF6AA20014908607047000000300040D4
:10193000014948607047000000300040014988605C
:101940007047000000300040014908607047000007
:101950000030004010B50121084600F015FF20219D
:101960000F48FFF7A0FC01210E48FFF79CFC08215F
:101970000B48FFF798FC4FF400710B48FFF793FCFE
:101980004FF480610848FFF78EFC4FF480710648E1
:10199000FFF787FC00F0D4FF01F028F810BD00002D
:1019A00000080240000402400010024008B5002078
:1019B0004FF4165302460121009002F0EDFE02F0B2
:1019C00057FC08BD10B5FFF77FFFFFF7E7FC642069
:1019D00000F066FDFFF7BEFFFFF7E8FF00F054F8E8
:1019E0004FF4E13001F0D6FD4FF4E13002F018F889
:1019F000FEF76CFCFFF7EEFA00F018FB02F047FA76
:101A0000042000F063FD002000F02AFE00F0EAF957
:101A10000348006800F0C0F9C820FFF7BBF910BD0B
:101A20000000002070B50446144800F067FA13481F
:101A30004068B0FBF4F1481EB0F1807F00D31BE09A
:101A4000481E4FF0E022506150170F22002807DA9D
:101A500013071E0E0A4B00F00F052D1F5E5503E005
:101A600013071D0E074B1D5400BF00204FF0E0224E
:101A700090610720106100BF70BD0000140D0020B0
:101A800018ED00E000E400E010B54FF4E13001F0A3
:101A9000AFFB46210448FEF7ACFB0020024908805A
:101AA000012000F003F810BD3A09002038B50446C3
:101AB000D1208DF800008DF801400221684600F029
:101AC00001F838BDF8B505460C46002746211E48EA
:101AD000FEF78FFB20201C498870224629461A48B1
:101AE000C01CFEF76DFB184802882146C01CFEF79B
:101AF000C5FD064632121448801C611C4254A11CCC
:101B00004654FE22E11C4254201D0F49A1F8420018
:101B10000846B0F84210801C00F01CF800200A496A
:101B200081F84400094890F90000401C10B10748B2
:101B3000FFF72AFB05480023054A591E00904FF481
:101B4000FA7000F05DF8F8BD3A090020420000206C
:101B5000651B000870B504460D462946204601F075
:101B600019FC70BD10B5044600BF0E4890F8440043
:101B700002280DDA0B4890F84400401C094981F80E
:101B800044000846B0F84210801CFFF7E3FF07E06E
:101B9000054890F90000401C10B10348FFF7F4FA23
:101BA000002010BD3A0900204200002070B500243A
:101BB00000250948006884B2214608A002F094F983
:101BC0000A48406A85B2294609A002F08DF94FF40F
:101BD000FA70FFF7DFF870BD24040040636F756E84
:101BE00074312049532025640D0A00000000014093
:101BF000636F756E74322049532025640D0A00000E
:101C00002DE9F0470546884691469A46089E0027EA
:101C100000240FE0C4EBC400344901EB8000C0682D
:101C200030B9C4EBC40001EB8000007900B903E0D7
:101C3000601CC4B21E2CEDDB00BF1E2C03D14FF084
:101C4000FF30BDE8F0872A480068642804D0B0F56A
:101C50007A7F11D12F4612E00A20B5FBF0F100FB8C
:101C6000115000B101270A20B5FBF0F018B10A208D
:101C7000B5FBF0F0074402E04FF0FF30E1E700BFB2
:101C800072B6C4EBC401194A02EB81001C21FEF7B5
:101C9000B0FAC4EBC400154901EB80008760C4EBC7
:101CA000C40001EB8000C760C4EBC40041F8208091
:101CB000C4EBC40001EB8000C0F81490C4EBC40076
:101CC00001EB8000C0F818A026B1C4EBC40001EB02
:101CD0008000066162B600F0F5FB0120054908703E
:101CE0000EB160B2307060B2ABE70000CC090020EA
:101CF000BC000020B800002000BFFEE770470000D5
:101D000070B5002100230F22C4781CB3174C24683F
:101D100004F4E064C4F5E064C4F30721C1F10404F1
:101D2000E3B20A4144789C40E1B2847814402143F4
:101D30000C07210E0E4C05786155047804F01F0540
:101D40000124AC4005786D11AD0005F1E025C5F822
:101D5000004109E0047804F01F050124AC40054D62
:101D60000678761145F8264070BD00000CED00E0C5
:101D700000E400E080E100E002490143024A116012
:101D8000704700000000FA050CED00E007204FF05E
:101D9000E02108617047000010B504464FF4E130BF
:101DA00001F0F8FB0D480460A5200D49087048704B
:101DB000412088700020C870084800680088001220
:101DC0000871064800680078487100208871C87161
:101DD000512008720120487210BD000054000020FC
:101DE0008009002010B51848184908600E221849CB
:101DF00016480068FEF7E4F91548C08913490968D8
:101E00008882012011490968C88203200F490968A6
:101E1000C88101200D4909688880F0200B490968B4
:101E2000488200F015F903200A4908700020488113
:101E300007200872B7EE000A084680ED010A01206B
:101E400002490968088010BD6037002000000020AA
:101E500094020020880200207047000029B1064A41
:101E600012680243044B1A6004E0034A126882437A
:101E7000014B1A60704700003038024029B1064A11
:101E800012680243044B1A6004E0034A126882435A
:101E9000014B1A60704700004038024029B1064AE1
:101EA00012680243044B1A6004E0034A126882433A
:101EB000014B1A60704700002038024029B1064AE1
:101EC00012680243044B1A6004E0034A126882431A
:101ED000014B1A60704700004438024029B1064A9D
:101EE00012680243044B1A6004E0034A12688243FA
:101EF000014B1A607047000024380240F0B5002101
:101F000000220024022500260223324F3F6807F0FA
:101F10000C0121B1042905D0082937D105E02E4F45
:101F2000076036E02C4F076033E02A4F3F1F3F68C1
:101F3000C7F38056274F3F1F3F6807F03F036EB13E
:101F4000254FB7FBF3F7DFF88CC0ACF1040CDCF8DD
:101F500000C0CCF3881C07FB0CF40CE01E4FB7FB51
:101F6000F3F7DFF870C0ACF1040CDCF800C0CCF380
:101F7000881C07FB0CF4174F3F1F3F68C7F301474E
:101F80007F1C7D00B4FBF5F7076002E0124F07608D
:101F900000BF00BF0F4F3F6807F0F00109090F4F66
:101FA0007A5C0768D74047600A4F3F6807F4E05102
:101FB000890A0A4F7A5C4768D7408760054F3F68B7
:101FC00007F46041490B054F7A5C4768D740C7600A
:101FD000F0BD0000083802400024F4002801002071
:101FE00010B501460022002300204A11012A02D127
:101FF0000A4C236808E0022A03D1084C7034236895
:1020000002E0064C7434236801F01F02012494405E
:102010001C400CB1012000E0002010BD003802403F
:102020000149086070470000800E474210B540210A
:102030000648FFF736F980210448FFF732F94FF4DC
:1020400080710248FFF72DF910BD00000008024022
:102050001C4800881C4908801A4840884880194854
:10206000808888801748C088C88016480089088101
:102070001448408948811348808988811148C08963
:10208000888212480068C089C88110480068008AA8
:1020900008820E480068408A48820C480068C08A5E
:1020A000C8820A480068008B088308480068408B93
:1020B000488306480068808B888304480068C08B8A
:1020C000C8837047940200205802002000000020BE
:1020D00000B587B001210220FFF7C0FE012188036F
:1020E000FFF7CCFE01208DF804008DF805000020DC
:1020F0008DF8060001208DF8070000030090694666
:102100002D48FFF763F805220D212B48FFF7A6F8AD
:1021100005220E212848FFF7A1F805220F212648A5
:10212000FFF79CF84FF40050009002208DF8040057
:1021300001208DF8050000208DF806008DF80700BD
:1021400069461D48FFF742F84FF400400090694689
:102150001948FFF73BF84FF4804000906946164855
:10216000FFF734F84FF480511348FFF79CF8002034
:10217000ADF808004FF48270ADF80A000020ADF809
:102180000C00ADF80E00ADF810004FF40070ADF883
:1021900012000020ADF81400ADF816000720ADF8CD
:1021A000180002A9054800F03BF90121034800F09E
:1021B00007F807B000BD00000004024000380040EE
:1021C00021B1028842F04002028004E002884FF60A
:1021D000BF731A400280704710B54FF48051064813
:1021E000FFF75FF8062001F057FE4FF480510248D8
:1021F000FFF759F810BD00000004024010B5044676
:102200002403FFF7E9FF00F08BF84FF480510C48EE
:10221000FFF747F8202001F03FFEC4F3074001F02C
:102220003BFEC4F3072001F037FEE0B201F034FEBC
:102230004FF480510248FFF736F800F071F810BDF6
:102240000004024010B5FFF743FF10BD2DE9F04137
:1022500004460E4617464FF480511148FFF721F807
:10226000032001F019FEC4F3074001F015FEC4F38A
:10227000072001F011FEE0B201F00EFE002505E09E
:10228000FF2001F009FE7055681C85B2BD42F7DBE6
:102290004FF480510248FFF706F8BDE8F0810000D6
:1022A0000004024010B500244FF480510F48FEF79F
:1022B000F8FF902001F0F0FD002001F0EDFD00207E
:1022C00001F0EAFD002001F0E7FDFF2001F0E4FD50
:1022D00044EA0024FF2001F0DFFD04434FF4805165
:1022E0000248FEF7E0FF204610BD00000004024057
:1022F00010B500244FF480510848FEF7D2FF0520A6
:1023000001F0CAFDFF2001F0C7FD04464FF48051E3
:102310000248FEF7C8FF204610BD0000000402403E
:1023200010B500BFFFF7E4FF00F001000028F9D16D
:1023300010BD2DE9F04704460E461546270BC4F3A1
:102340000B08C8F580594D4500DCA9463846FFF713
:1023500055FF2A462146304600F002F8BDE8F087D6
:102360002DE9F04107460E461446F0B2C0F58075DF
:10237000AC4200DC254612E02A463146384600F0E1
:1023800013F8AC4200D10BE02F442E44601B84B202
:10239000B4F5807F02DD4FF4807500E02546EBE761
:1023A00000BFBDE8F08100002DE9F04106460C4673
:1023B0001746FFF711FF4FF480511148FEF771FFE8
:1023C000022001F069FDC4F3074001F065FDC4F38C
:1023D000072001F061FDE0B201F05EFD002504E0A0
:1023E000705D01F059FD681C85B2BD42F8DB4FF409
:1023F00080510348FEF757FFFFF792FFBDE8F081D9
:10240000000402400246002013890B400BB101205A
:1024100000E000207047014688897047818170473D
:1024200010B50022028802F441520B884C882343E5
:102430008C882343CC8823430C8923434C89234332
:102440008C892343CC8923431A430280838B4FF228
:10245000FF74234083830B8A038210BD7047000002
:1024600030B500228B071C0F0F2303FA04F20B4B2D
:102470008C1053F824309343084C8D1044F82530C9
:1024800023468C1053F824308C07240F00FA04F4F0
:102490002343024C8D1044F8253030BD08380140EC
:1024A00010B504464FF452710448FDF7A2FE0448EB
:1024B00004602046FFF7B6FA10BD0000CC090020EA
:1024C000BC00002000B5FFF761FC00BD10B504465C
:1024D000554801680068401C534A106000296FD9B4
:1024E0001046006844F6206188427AD2082C69D2EE
:1024F000DFE804F0680412202E3C4A5840214B4883
:10250000FEF7D1FE80214948FEF7CBFE4FF48071E3
:102510004648FEF7C6FE63E080214448FEF7C3FE4E
:1025200040214248FEF7BDFE4FF480713F48FEF760
:10253000B8FE55E04FF480713C48FEF7B4FE4021F0
:102540003A48FEF7AEFE80213848FEF7AAFE47E083
:1025500040213648FEF7A7FE80213448FEF7A3FE4F
:102560004FF480713148FEF79CFE39E040212F483E
:10257000FEF799FE4FF480712C48FEF794FE8021FF
:102580002A48FEF78EFE2BE080212848FEF78BFEBE
:102590004FF480712548FEF786FE40212348FEF760
:1025A00080FE1DE040212148FEF77DFE80211F486E
:1025B000FEF779FE4FF480711C48FEF774FE0FE0C1
:1025C0000FE0FFE740211948FEF76BFE4FF48071E2
:1025D0001648FEF766FE80211448FEF762FE00BF33
:1025E00021E01148006844F62061884212D90E4863
:1025F0000068490088420DD240210C48FEF751FE88
:102600004FF480710948FEF74CFE80210748FEF721
:1026100048FE08E00448006849F64041884202D973
:1026200000200149086010BD480000200008024059
:1026300010B54FF480710948FEF735FE4FF4007174
:102640000648FEF730FE4FF480610448FEF72BFE8B
:102650004FF400610148FEF726FE10BD000C024059
:1026600010B50446034804700078012801D1FFF733
:10267000DFFF10BD4D0000200CB500200190009040
:102680003D48006840F480303B49086000BF3A484C
:10269000006800F4003000900198401C0190009800
:1026A00018B90198B0F5A04FF1D13348006800F493
:1026B000003010B10120009001E00020009000984F
:1026C000012847D12C484030006840F080502A490A
:1026D000403108602948006840F4404027490860BC
:1026E0002548083000682449083108600846006819
:1026F00040F4004008600846006840F4A0500860BC
:102700001F48091F0860081F006840F08070091FFB
:10271000086000BF1848006800F000700028F9D079
:1027200040F205701749086013480830006820F02F
:1027300003001149083108600846006840F00200B3
:10274000086000BF0C480830006800F00C00082842
:10275000F8D10FE04FF4C0600A490860064808301D
:1027600000680549083108600846006808600846A6
:10277000006808600CBD0000003802400070004096
:1027800010324007003C0240064AD278824203D110
:10279000054AD2788A4203D0024BD870024BD970D6
:1027A00070470000300000203800002000B500F025
:1027B0001DFC00BD10B51548006840F470001349B9
:1027C00008601348006840F00100114908600020CB
:1027D0000F49083108600E4800680E4908400C494E
:1027E00008600D48091D0860081F006820F480205B
:1027F000091F0860002006490C310860FFF73CFF04
:102800004FF0006001498039086010BD88ED00E09C
:1028100000380240FFFFF6FE10300024F0B50C46F1
:10282000154600210022068C4FF6FE773E400684B6
:10283000018B028C4FF60C7631407E1C06EA0316A3
:102840002E4331434FF6F576324044F001063243D1
:1028500001830284F0BDF0B50C461546002100222C
:102860000026078C4FF6EF7C07EA0C070784018BE4
:10287000028C4FF6FF7707EA041640F6FF4739400F
:102880004FF6FF7707EA033739434FF6FF7707EA3A
:10289000052739434FF65F773A4046F010073A4331
:1028A00001830284F0BDF0B50C46154600210022DC
:1028B0000026078C4FF6FF6C07EA0C070784818B14
:1028C000028C4FF6FF7707EA04264FF60C77394063
:1028D0004FF6FF7707EA03172F4339434FF2FF57AD
:1028E0003A4046F480773A4381830284F0BDF0B5E4
:1028F0000C461546002100220026078C4EF6FF7C70
:1029000007EA0C070784818B028C4FF6FF7707EAF2
:10291000043640F6FF4739404FF6FF7707EA0527B0
:1029200039434FF6FF7707EA0337394345F6FF7718
:102930003A4046F480573A4381830284F0BD000058
:1029400000B589B001210846FFF7B8FA0121084611
:10295000FFF784FA4FF48050019003208DF80900AE
:1029600000208DF8080001208DF80A008DF80B007A
:1029700001A91C48FEF72AFC01220C211948FEF788
:102980006DFC06A800F028FB0020ADF818004EF6FC
:10299000602007900020ADF82000ADF81A0006A9CD
:1029A000114800F0D7FA00231A4601210E4800F022
:1029B0001BFA03A800F087FA0020ADF8140003A961
:1029C000094800F049FA0121074800F033F90122D3
:1029D0001146054800F080FA0121034800F030F963
:1029E00009B000BD000002400000014000B589B000
:1029F00001210220FFF742FA01210420FFF72EFAFD
:102A0000C020019003208DF8090002208DF80800F5
:102A100001208DF80A008DF80B0001A91E48FEF771
:102A2000D5FB022206211C48FEF718FC02220721D2
:102A30001948FEF713FC06A800F0CEFA0020ADF806
:102A400018004EF6602007900020ADF82000ADF889
:102A50001A0006A9114800F07DFA00231A46012148
:102A60000E4800F0C1F903A800F02DFA0020ADF8DF
:102A7000140003A9094800F0EFF90121074800F00C
:102A8000D9F801221146054800F026FA0121034831
:102A900000F0D6F809B000BD000802400004004074
:102AA0001FB56846FFF72AFA0821314800F0C3F93C
:102AB00070B108212E4800F0C0F82D4800F0B5F99B
:102AC0002C490880084601882BA001F00DFA4EE041
:102AD0001021274800F0AFF9002848D010212448E1
:102AE00000F0ABF82948408840B9214800F0A0F92F
:102AF0002049488001202549488038E02348408803
:102B0000012834D11A4800F093F921494880084639
:102B1000408818494988884207DD1D484088154982
:102B20004988401A1B49486013E0194840881149F8
:102B3000498888420ADA0F4840884FF6FF71081A20
:102B40001349498808441349486002E000201149AC
:102B5000486064210198B0FBF1F040080D494968D4
:102B6000B0FBF1F00C4948600020084948801FBDC7
:102B700000080040040100205265616456616C3118
:102B80002069732025640D0A000000000C0100205C
:102B900008010020100100201C01002010B51021A8
:102BA000124800F048F9F8B1104800F041F981B23C
:102BB0000F480468601C0E4A10600E4820F814107C
:102BC00010210A4800F039F80948006802280BD3A0
:102BD000084800884FF6FF71081A064949880844DA
:102BE000401C80B20449086010BD0000000C004089
:102BF000F800002000010020FC00002010B5012199
:102C0000054800F018F928B10121034800F015F833
:102C100002F072F810BD00000018004021B10288D7
:102C200042F08002028004E002884FF67F731A406F
:102C300002807047CA4302827047CA4302827047CB
:102C400021B1028842F00102028004E002884FF6BE
:102C5000FE731A400280704710B5044655488442FE
:102C600008D101210846FFF739F900210120FFF7BB
:102C700035F99DE0B4F1804F08D101210846FFF7F6
:102C80000DF900210120FFF709F991E04A4884423B
:102C900008D101210220FFF701F900210220FFF7EE
:102CA000FDF885E04548844208D101210420FFF762
:102CB000F5F800210420FFF7F1F879E0404884425C
:102CC00008D101210820FFF7E9F800210820FFF7CB
:102CD000E5F86DE03B48844208D101211020FFF760
:102CE000DDF800211020FFF7D9F861E03648844272
:102CF00008D101212020FFF7D1F800212020FFF783
:102D0000CDF855E03148844208D101210220FFF777
:102D1000E5F800210220FFF7E1F849E02C48844261
:102D200009D101210804FFF7D9F800214FF48030C0
:102D3000FFF7D4F83CE02748844209D10121480438
:102D4000FFF7CCF800214FF40030FFF7C7F82FE071
:102D50002148844209D101218804FFF7BFF80021EE
:102D60004FF48020FFF7BAF822E01C48844208D1D3
:102D700001214020FFF792F800214020FFF78EF854
:102D800016E01748844208D101218020FFF786F819
:102D900000218020FFF782F80AE01248844207D120
:102DA00001218015FFF77AF80021A015FFF776F8CA
:102DB00010BD000000000140000400400008004079
:102DC000000C0040001000400014004000040140CE
:102DD000004001400044014000480140001800400C
:102DE000001C004000200040F0B50C4615461E4671
:102DF0000021002200230189028B038C4FF6F87713
:102E0000394021434FF6FC473A4040F201173A431C
:102E10004FF6DD773B404FF6FF7707EA06172F4363
:102E20003B43018102830384F0BD0146C86B7047B8
:102E30000146086C704730B502460020002300248C
:102E4000158A05EA0103958905EA010413B10CB15D
:102E5000012000E0002030BD70B505460C462088FA
:102E600050B92389A28861882846FFF7D7FCE188FA
:102E7000284600F042F825E0208804280AD123895A
:102E8000A28861882846FFF7E6FCE188284600F022
:102E90003DF817E0208808280AD12389A288618894
:102EA0002846FFF700FDE188284600F03CF809E0DD
:102EB0002389A28861882846FFF719FDE188284602
:102EC00000F03AF870BD002101804180012181802D
:102ED0000021C180018170471AB183890B4383812E
:102EE00002E083898B43838170470185828270472A
:102EF000A0F85010704741627047028B4FF6F37391
:102F00001A400283028B0A4302837047028B4FF2FE
:102F1000FF331A400283028B4FF6FF7303EA01234B
:102F20001A4302837047828B4FF6F3731A408283F1
:102F3000828B0A4382837047828B4FF2FF331A40A1
:102F40008283828B4FF6FF7303EA01231A43828345
:102F50007047000000220288184B98420ED0184B90
:102F600098420BD0B0F1804F08D0164B984205D054
:102F7000154B984202D0154B984204D14FF68F73EF
:102F80001A404B881A43124B984207D0114B984273
:102F900004D04FF6FF431A400B891A4302804B6856
:102FA000C3620B880385054B984202D0044B9842BC
:102FB00001D18B7A03860123838270470000014090
:102FC000000401400004004000080040000C0040E4
:102FD00000100040001400404FF0FF31416000211C
:102FE000018001814180817270470000002050E023
:102FF000C0EBC001284A02EB8101896879B3C0EBBC
:10300000C00102EB81018968491EC0EBC002224B5E
:1030100003EB8202916011BB0121C0EBC00203EB04
:1030200082021171C0EBC0011A4652F82110012929
:1030300016D10021C0EBC00203EB8202D160C0EBCD
:10304000C0011A4602EB81010969A9B14FF0FF31B5
:10305000C0EBC00203EB8202126911600CE016E0C3
:10306000C0EBC0010C4A02EB8101C968C0EBC00291
:10307000094B03EB82029160C0EBC001064A52F893
:103080002110491EC0EBC002034B43F82210411C23
:10309000C8B21E28ACDB7047CC09002010B540F246
:1030A00025510C4800F02EFE30B101F02DFE40F20B
:1030B0002551084800F0DFFD40F22661054800F088
:1030C00021FE30B101F028FE40F22661014800F0F7
:1030D000D2FD10BD004C004010B540F224413D48E7
:1030E00000F010FE002844D000213B48FDF706FD0B
:1030F0003948FDF7BBFDC0F16400384988800846B7
:103100008088002817DD3648007800EBC00101EB0D
:103110000010344901EB80003049086001208871BB
:103120002F480078401C2E49087008460078032874
:1031300001DB002008702C492748FDF7C5FC6421FD
:103140002548FDF713FE2648007800EBC00101EB8F
:103150000010244901EB8000244988601E48FDF7D7
:10316000D9FD01211C48FDF7C9FC1A4800881948FF
:10317000848840F22551174800F0C4FDC0B11548BD
:1031800080881749097801EBC10202EB0111154A49
:1031900002EB8101114A9288885410488088401CB3
:1031A0000E49888008468088642801DD00208880D8
:1031B0004FF45A71074800F0A5FD20B14FF45A7141
:1031C000044800F058FD40F22441024800F053FD4D
:1031D00010BD00000010014088640240C8000020BB
:1031E000C4000020240D0020400F00208C0E002081
:1031F00010B588B0044601210846FEF72FFE0121D4
:103200001020FEF75BFE072209212F48FEF726F863
:1032100007220A212C48FEF721F800208DF80E0025
:1032200001208DF80F0002208DF80C0001208DF890
:103230000D004002029002A92348FDF7C7FF0220BB
:103240008DF80C004002029002A91F48FDF7BEFF56
:1032500004940020ADF81400ADF81600ADF8180085
:10326000ADF81C000C20ADF81A0004A9174800F0B6
:1032700099FD25208DF8040000208DF8050002201E
:103280008DF8060001208DF8070001A8FEF738FD33
:10329000012240F224410D4800F05EFD01210B485F
:1032A00000F00EFD4021094800F0DCFC0848002138
:1032B0000160416000F00EF800F08AF80120044936
:1032C000C87108B010BD00000000024000100140AD
:1032D000C800002008B501218805FEF7BFFD284879
:1032E000FDF746FD4FF0006025490860254848601D
:1032F0002548007800EBC00101EB0010234901EBE9
:1033000080001F4988600020C86064200861002098
:1033100048614FF4806088610020C861086248629B
:103320004FF4803088620020C86208634863886375
:103330001748FDF7EFFC012240211248001F00F062
:10334000CBFC01211248FDF7D9FB012210211048C6
:10335000FDF7C2FC012204210D48FDF7BDFC44200D
:103360008DF8000000208DF8010002208DF8020089
:1033700001208DF803006846FEF7C2FC08BD00007E
:103380008C0E002004100140C4000020240D0020F9
:103390008864024070B505460C4600200949C87192
:1033A00000210948FDF7AAFB084885600461014631
:1033B0000548FDF7AFFC01210348FDF79FFB002006
:1033C00070BD0000C8000020B8640240500E00200C
:1033D00008B501218805FEF741FD1F48FDF7C8FC2F
:1033E0004FF000601C4908601C4848604020C860DD
:1033F000002048614FF4806088610020C861086245
:1034000048624FF4803088620020C86208634863D5
:1034100088631348FDF77EFC012280210F48001FBE
:1034200000F05AFC012210210D48FDF755FC012245
:1034300004210B48FDF750FC46208DF800000020C9
:103440008DF8010002208DF8020001208DF80300A4
:103450006846FEF755FC08BD500E002004100140E0
:10346000B864024010B540F22441424800F04AFCE2
:10347000002845D000214048FDF740FB3E48FDF7BD
:10348000F5FBC0F5FA603D49888008468088B8B1F0
:103490003B48007800EB4001C1EBC010394901EB1B
:1034A0000010364908600120887135480078401CBA
:1034B0003349087008460078022801DB00200870B4
:1034C00031492D48FDF700FB4FF4FA612A48FDF71A
:1034D0004DFC2B48007800EB4001C1EBC01029499E
:1034E00001EB0010294988602348FDF713FC0121F6
:1034F0002148FDF703FB1F4800881E48001D048873
:1035000040F225511B4800F0FDFBC8B120488088DF
:103510001B49097801EB4102C2EBC111194A02EBC8
:103520000111164A9288885414488088401C134917
:10353000888008468088B0F5FA6F01DD0020888019
:103540004FF45A710B4800F0DDFB20B14FF45A7173
:10355000084800F090FB0821064800F0C6FB01284F
:1035600006D10821034800F07DFB024800F084FCEE
:1035700010BD00000044004088600240D4000020DC
:10358000D0000020C80E0020400F0020A41E002004
:103590000010014010B588B0044601210820FEF754
:1035A0005DFC01214804FEF769FC072206212F4833
:1035B000FDF754FE072205212C48FDF74FFE0020A1
:1035C0008DF80E0001208DF80F0002208DF80C0000
:1035D00001208DF80D004020029002A92348FDF73C
:1035E000F5FD02208DF80C002020029002A91F4852
:1035F000FDF7ECFD04940020ADF81400ADF81600C2
:10360000ADF81800ADF81C000C20ADF81A0004A9A4
:10361000174800F0C7FB26208DF8040000208DF825
:10362000050002208DF8060001208DF8070001A892
:10363000FEF766FB012240F224410D4800F08CFBAE
:1036400001210B4800F03CFB4021094800F00AFB37
:10365000084800210160416000F00EF800F06CF8AD
:1036600001200449C87108B010BD0000000C0240E0
:1036700000440040D400002008B501214805FEF7B1
:10368000EDFB2848FDF774FB4FF00060254908600A
:10369000254848602548007800EB4001C1EBC01088
:1036A000234901EB00101F4988600020C8604FF4D7
:1036B000FA600861002048614FF480608861002052
:1036C000C861086248624FF4803088620020C86296
:1036D0000863486388631748FDF71CFB01224021FB
:1036E0001148001F00F0F8FA01211248FDF706FA10
:1036F000012210210F48FDF7EFFA012204210D48A5
:10370000FDF7EAFA10208DF8000000208DF8010086
:1037100002208DF8020001208DF803006846FEF7B4
:10372000EFFA08BDA41E002004440040D000002091
:10373000C80E00208860024008B501214805FEF748
:103740008DFB2048FDF7E6F91F48FDF711FB4FF010
:1037500000601D4908601D4848604020C860002086
:1037600048614FF4806088610020C8610862486247
:103770004FF4003088620020C862086348638863A1
:103780001048FDF7C7FA012280211048001F00F001
:10379000A3FA012214210B48FDF79EFA00210948E3
:1037A000FDF7ACF911208DF8000000208DF8010024
:1037B00002208DF8020001208DF803006846FEF714
:1037C0009FFA08BDA0600240681E0020044400402B
:1037D00010B540F22441424800F094FA002845D048
:1037E00000214048FDF78AF93E48FDF73FFAC0F551
:1037F000FA603D49888008468088B8B13B48007827
:1038000000EB4001C1EBC010394901EB0010364913
:1038100008600120887135480078401C33490870E1
:1038200008460078022801DB0020087031492D4845
:10383000FDF74AF94FF4FA612A48FDF797FA2B4849
:10384000007800EB4001C1EBC010294901EB0010EA
:10385000294988602348FDF75DFA01212148FDF7D9
:103860004DF91F4800881E48001D048840F225516C
:103870001B4800F047FAC8B1204880881B490978E6
:1038800001EB4102C2EBC111194A02EB0111164AC8
:103890009288885414488088401C134988800846C0
:1038A0008088B0F5FA6F01DD002088804FF45A71EE
:1038B0000B4800F027FA20B14FF45A71084800F085
:1038C000DAF90821064800F010FA012806D108218B
:1038D000034800F0C7F9024800F0CEFA10BD00001E
:1038E0000048004028600240E0000020DC0000208A
:1038F000E01E0020400F0010BC2E002000100140F0
:1039000010B540F224413F4800F0FCF9002846D0B1
:1039100000213D48FDF7F2F83B48FDF7A7F9C0F557
:103920007A703A49888008468088002817DD384830
:10393000007800EB4001C1EBC010364901EBC0003C
:10394000324908600120887131480078401C3049B4
:10395000087008460078022801DB002008702E4914
:103960002948FDF7B1F84FF47A712748FDF7FEF9C1
:103970002748007800EB4001C1EBC010254901EB5E
:10398000C000264988602048FDF7C4F901211E487F
:10399000FDF7B4F81B4800881A48001D048840F25F
:1039A0002551184800F0AEF9D0B11648001D008826
:1039B0001749097801EB4102C2EBC111154A02EB2C
:1039C000C101124A9288885410488088401C0F49CF
:1039D000888008468088B0F57A7F01DD00208880E5
:1039E0004FF45A71074800F08DF920B14FF45A7125
:1039F000044800F040F940F22441024800F03BF94D
:103A000010BD00000014014040640240EC000020A2
:103A1000E8000020F82E002000003D1004370020B0
:103A200010B58AB0044601210420FEF717FA0121DF
:103A30002020FEF743FA082206213248FDF70EFC4B
:103A4000082207212F48FDF709FC00208DF81600F9
:103A500001208DF8170002208DF8140001208DF848
:103A600015004020049004A92648FDF7AFFB022072
:103A70008DF814008020049004A92248FDF7A6FBCD
:103A800006940020ADF81C00ADF81E00ADF8200033
:103A9000ADF824000C20ADF8220006A91A4800F069
:103AA00081F901A800F006F901A9174800F0F2F821
:103AB00047208DF80C0000208DF80D0002208DF8B5
:103AC0000E0001208DF80F0003A8FEF719F901225E
:103AD00040F224410C4800F03FF901210A4800F06F
:103AE000EFF84021084800F0BDF8084800210160C7
:103AF000416000F00DF800F06BF801200349C87137
:103B00000AB010BD0008024000140140EC00002083
:103B100008B501218805FEF7A1F92848FDF728F925
:103B20004FF0206025490860254848602548007806
:103B300000EB4001C1EBC010234901EBC0001F495D
:103B400088600020C8604FF47A70086100204861E6
:103B50004FF4806088610020C861086248624FF4B9
:103B6000803088620020C862086348638863174811
:103B7000FDF7D0F8012240211148001F00F0ACF8F9
:103B800001211248FCF7BAFF012210210F48FDF76E
:103B9000A3F8012204210D48FDF79EF83A208DF884
:103BA000000000208DF8010002208DF802000120A5
:103BB0008DF803006846FEF7A3F808BD043700201F
:103BC00004140140E8000020F82E00204064024068
:103BD00008B501218805FEF741F91F48FDF7C8F82F
:103BE0004FF020601C4908601C4848604020C860B5
:103BF000002048614FF4806088610020C86108623D
:103C000048624FF4803088620020C86208634863CD
:103C100088631348FDF77EF8012280210F48001FBA
:103C200000F05AF8012210210D48FDF755F8012245
:103C300004210B48FDF750F845208DF800000020C6
:103C40008DF8010002208DF8020001208DF803009C
:103C50006846FEF755F808BDC83600200414014038
:103C6000A064024001F40072B2F5007F00D100BFF1
:103C7000CA430280704710B50022002340F66A1440
:103C8000A14200D100BF0A1201249440A3B2DC4338
:103C9000048010BD10B502460020108A20F4706028
:103CA0000B884C8823438C882343CC8823431843B8
:103CB000108210BD0021018041808180C180704749
:103CC00021B1828942F40052828104E082894DF65A
:103CD000FF731A40828170471AB1838A0B43838233
:103CE00002E0838A8B438382704702460020B1F54D
:103CF000007F00D100BF13880B400BB1012000E012
:103D00000020704770B502460024002300250020E3
:103D100040F66A16B14200D100BFC1F3421501F06E
:103D20001F03012606FA03F3012D02D196893340C1
:103D300006E0022D02D1168A334001E0968A334014
:103D40000C12012606FA04F41688344013B10CB1A3
:103D5000012000E0002070BDF0B5034600240026DD
:103D60000025002040F66A17B94200D100BF18466E
:103D7000C1F3421401F01F06012707FA06F5012CD2
:103D800001D10C3004E0022C01D1103000E01430DD
:103D90001AB107682F43076002E00768AF43076066
:103DA000F0BD00002DE9FF4705460E460024A14660
:103DB00000BFA046B08900B100BF2C8A24F4405453
:103DC000F08804432C82AC8941F20C608443B088B3
:103DD00031890843718908430443AC81AC8A24F4D7
:103DE0004074B0890443AC826846FEF787F82048E7
:103DF000854202D01F48854202D1DDF80C9001E0D7
:103E0000DDF80890A88900F4004040B109EBC90032
:103E100000EB091031684900B0FBF1F707E009EB4E
:103E2000C90000EB091031688900B0FBF1F764208C
:103E3000B7FBF0F004012009642101FB1078A88988
:103E400000F4004040B1322000EBC800B0FBF1F0BC
:103E500000F00700044308E0322000EB0810642162
:103E6000B0FBF1F000F00F0004432C81BDE8FF87A8
:103E7000001001400014014001468888C0F308008A
:103E80007047C1F308028280704700BFFEE710B59B
:103E9000FEF7CEFB10BD000010B5044600BF0221A6
:103EA0000A48FEF7AFFA0028F9D021460748FEF786
:103EB000B5FA00BF01210548FEF7A4FA0028F9D0A1
:103EC0000248FEF7A8FAC0B210BD0000003800405A
:103ED00010B504464FF400410248FDF7E6F9002012
:103EE00010BD0000001002400FB4054B10B503A92F
:103EF000044A029800F02CF810BC5DF814FB000096
:103F0000214C0008540200200FB4084B10B504A93E
:103F100002AA039800F01CF8044602A9002000F051
:103F2000F3F8204610BC5DF814FB000009410008BE
:103F300002E008C8121F08C1002AFAD17047704772
:103F4000002001E001C1121F002AFBD170470000D0
:103F50002DE9FF4F8BB09A460F460546002606E036
:103F600025280BD052460D9990476D1C761C287859
:103F70000028F5D10FB03046BDE8F08F0024A046F0
:103F80000122604900E0044315F8013F203B02FA9A
:103F900003F00842F7D128782E2817D115F8010F21
:103FA00044F004042A280ED06FF02F022878A0F1E4
:103FB000300109290AD808EB880102EB410100EB26
:103FC00001086D1CF2E757F8048B6D1C28786928EE
:103FD0003ED006DC0028CDD063280BD0642804D165
:103FE00036E0732810D075284BD052460D99904773
:103FF000761C85E017F8040B8DF8000000208DF882
:104000000100E946012003E057F8049B4FF0FF3020
:1040100061074FF0000401D40AE0641C44450DDA46
:104020008442FADB19F804100029F6D106E0641C7A
:104030008442FCDB19F804100029F8D1264404E07E
:1040400019F8010B52460D999047641EF8D257E0BB
:1040500001CF4FF00A0B002802DA40422D2102E086
:10406000210504D52B218DF82410012103E0E1075F
:1040700005D02021F7E70DF1200908910CE000217F
:10408000F9E701CF4FF00A0BF9E75946FCF7CAF8F8
:1040900001F1300209F8012D0028F6D1ADEB09003D
:1040A00000F1200B600701D44FF00108D84502DD74
:1040B000A8EB0B0000E000208046002406E009A8E1
:1040C0005246005D0D999047641C761C0898844206
:1040D000F5DB04E0302052460D999047761CB8F18C
:1040E0000001A8F10108F5DC05E019F8010B5246C2
:1040F0000D999047761CBBF10001ABF1010BF4DC8C
:104100006D1C34E7092801000A68531C0B6010700D
:10411000704700002DE9F04180460C4615461E46CA
:104120000027FCF75FFE0A200B4908703346072280
:104130002946204600F0A2FF012801D0032706E00F
:1041400044F6206001F006F8012800D00327FCF7B0
:104150004EFE3846BDE8F081030200202DE9F04113
:1041600004460D4616460027FCF73CFE0E48008824
:10417000032813DB0C4801880C48006800F0ABFDF5
:1041800060B90A4800680078207007480088801EDF
:10419000308006480068401C286000E00527FCF7D6
:1041A00026FE3846BDE8F081F8010020F401002029
:1041B0002DE9F04104460D4616464FF00008FCF785
:1041C00011FE1748007818BB681E164908600120C8
:1041D0001549088013480068047008460088304478
:1041E0000880084601880F48006800F074FD074603
:1041F0000D490888411C0C4A11800C4909680F546C
:1042000001200B4908700121002000F0A9FD01E008
:104210004FF00508FCF7EBFD4046BDE8F0810000DB
:10422000F1010020FC01002000020020F401002028
:10423000F001002010B5FCF7D5FD0021012000F0B1
:104240008FFD002003490870FCF7D1FD002000F02D
:10425000FFFE10BDF101002010B5FCF7C3FD0021E9
:10426000084600F07DFD00F09DFDFCF7C0FD10BD8F
:1042700010B5002406480078012806D105480068DA
:10428000804700200249087000E00624204610BD47
:104290003A010020400100202DE9F05F06460D465E
:1042A0004FF0000B2888052848D170784FEA002984
:1042B000B07840EA090909F101001FFA80F9F078A5
:1042C000040230790443012C35DBB4F5FA6F32DA9D
:1042D000374600202880012007F8010B2888401C61
:1042E000288004F0070040B12046E11704EB51712B
:1042F000C910491C01F0FF0805E02046E11704EB56
:104300005171C1F3C70807F8018B2888401C288029
:10431000002322464946384600F0AAFB8246BAF1FD
:10432000000F04D0504600F0A1FC834608E0288826
:104330004044288004E04FF0030B01E04FF0030BF2
:104340005846BDE8F09F2DE9F05F06460D464FF058
:10435000000B2888052847D170784FEA0029B078EB
:1043600040EA090909F101001FFA80F9F078040216
:1043700030790443012C34DBB4F5FA6F31DA374677
:1043800000202880022007F8010B2888401C288084
:1043900004F0070040B12046E11704EB5171C91049
:1043A000491C01F0FF0805E02046E11704EB5171BC
:1043B000C1F3C70807F8018B2888401C28802246D3
:1043C0004946384600F0A0FB8246BAF1000F04D0FF
:1043D000504600F04BFC834608E028884044288083
:1043E00004E04FF0030B01E04FF0030B5846BDE82B
:1043F000F09F2DE9F04705460C464FF0000A208853
:10440000052833D168784FEA0029A87840EA0909DD
:10441000E87806022E79012E25DB7D2E23DC2F463F
:1044200000202080032007F8010B2088401C2080FA
:104430007006000E07F8010B2088401C2080002326
:1044400032464946384600F08FFB8046B8F1000FEF
:1044500004D0404600F00AFC824609E0208800EBC8
:104460004600208004E04FF0030A01E04FF0030A09
:104470005046BDE8F0872DE9F04705460C464FF061
:10448000000A2088052837D168784FEA0028A878E4
:1044900040EA080808F101001FFA80F8E8780602EF
:1044A00028790643012E24DB7D2E22DA2F460020B8
:1044B0002080042007F8010B2088401C2080700613
:1044C000000E07F8010B2088401C20803246414630
:1044D000384600F085FB8146B9F1000F04D048460C
:1044E00000F0C4FB824609E0208800EB46002080F3
:1044F00004E04FF0030A01E04FF0030A5046BDE824
:10450000F0872DE9FC5F04460D46002000902888C6
:104510000A2855DB60784FEA002AA07840EA0A0AA8
:10452000E07806022079064360794FEA002BA079F3
:1045300040EA0B0BE0790702207A0743607A01908A
:10454000012E3BDB7D2E39DC012F37DB792F35DC6B
:1045500079000198814231D101233A46594604F14C
:104560000A0000F001FB8146B9F1000F1ED1A04600
:1045700000202880172008F8010B2888401C28807C
:104580007006000E08F8010B2888401C28800023C4
:1045900032465146404600F0E7FA8146B9F1000F35
:1045A00004D12888022101FB06002880B9F1000F00
:1045B00006D0484600F05AFB009001E0032000902E
:1045C0000098BDE8FC9F000070B505460C46064803
:1045D00002880649681CFBF7F3FD03480088401C6D
:1045E0002080002070BD0000040200204037002021
:1045F0002DE9F84304460F464FF000083888052897
:1046000029D160780502A0780543681C85B220791D
:10461000F0B9E078FF2801D0E078C8B900208DF823
:104620000100E078FF2803D101208DF8000002E0AE
:1046300000208DF8000001231A462946684600F044
:1046400017FA06464EB1304600F010FB804604E0F3
:104650004FF0030801E04FF003084046BDE8F8833F
:104660002DE9F04104460E464FF000083088052839
:1046700010D160780702A078074301231A46394613
:10468000E01C00F071FA054635B1284600F0EEFA5C
:10469000804601E04FF003084046BDE8F0812DE977
:1046A000F05F05460E464FF0000B3088052839DDD7
:1046B00068780702A8780743781C87B2E878040274
:1046C0002879044395F805A004F0070040B120467E
:1046D000E11704EB5171C910491C01F0FF0805E016
:1046E0002046E11704EB5171C1F3C708012C16DB1A
:1046F000B4F5F66F13DCD04511D1012322463946BB
:10470000A81D00F0B5F98146B9F1000F04D0484664
:1047100000F0ACFA834607E00520308004E04FF05B
:10472000030B01E04FF0030B5846BDE8F09F2DE965
:10473000F04704460E464FF0000A3088062826DB74
:1047400060784FEA0028A07840EA0808E07805027F
:104750002079054394F80590012D15DB782D13DCA5
:104760006806000E48450FD101232A464146A01D88
:1047700000F0FAF9074627B1384600F077FA82468A
:1047800007E00520308004E04FF0030A01E04FF01D
:10479000030A5046BDE8F0872DE9F04705460C4670
:1047A00016461F46DDF820904FF000081CB1012C82
:1047B00001DBF72C02DD4FF0020859E02E480470AF
:1047C00015B1012D42D120E02C482D4908602D481B
:1047D0002D4908602D482E4908602E482E49086052
:1047E00000202E4908602E482E4908602E482F4987
:1047F00008602F482F4908604B463A4631461E480C
:10480000007800F06BF8804623E02B481C490860D4
:104810002A481D4908602A481D49086029481E4940
:10482000086000201D49086027481E490860274885
:104830001E49086026481F4908604B463A463146E3
:104840000D480078FFF766FC804602E04FF0020852
:1048500000BF00BFB8F1000F0AD100F0F1FB10B9A2
:104860004FF0030804E01B48057001201A49087046
:104870004046BDE8F087000038010020354A0008B6
:1048800040010020594A00084401002085490008E1
:104890003C01002035490008480100204C0100205F
:1048A000C5510008500100208D520008540100201D
:1048B0004D520008580100203542000859420008B6
:1048C000B14100085D410008FD4D0008514F00084E
:1048D000254F0008390100203A0100202DE9F0475A
:1048E00081460E4614461F464FF00008FCF77AFA40
:1048F0003B4608222146304600F0C0FB012802D08A
:104900004FF003080FE0B4F5964F01D9232503E0DB
:1049100060000749B1FBF0F5A8B200F01BFC0128CC
:1049200001D04FF00308FCF762FA4046BDE8F0877B
:10493000A07F17002DE9F04104460D4616460027DA
:10494000FCF750FA0D480088042810DB0B4801885A
:104950000B4800F0E9F950B9094800782070074881
:104960000088C01E30800648401C286000E00527F3
:10497000FCF73DFA3846BDE8F08100005202002005
:10498000803700202DE9F04105460E4617464FF0CE
:104990000008FCF727FA22480078012838D1701E59
:1049A000204908600120204908801E4800680570E1
:1049B000084600883844088008460188194800687D
:1049C00000F0B2F9044618490888411C164B1980BA
:1049D00016490C54221219460888411C19801349A3
:1049E0000A540120124908700E490968087800F03D
:1049F000A7FB0C480068401C0A4908600A48008868
:104A0000401E094908800121002000F0A9F901E0B9
:104A10004FF00508FCF7EBF94046BDE8F0810000D7
:104A2000490200204C020020500200208037002064
:104A30004802002010B5FCF7D5F9002005490870A0
:104A40000021012000F08CF900F0C2F9FCF7CFF949
:104A500010BD00004902002010B5FCF7C3F9002189
:104A6000084600F07DF900F09DF9FCF7C0F910BD93
:104A70002DE9F04705460E46904699464FF0000A4C
:104A80000FFA88F430B2002836DB06EB0800102855
:104A900032DC304607B2B9F1000F03D0B9F1010F93
:104AA00029D115E011E0082C01DD082000E02046A6
:104AB000C2B2B9B2134800F01FFC05F8010BA4F113
:104AC000080004B207F1080007B2002CEBDC12E08A
:104AD0000EE015F8013B082C01DD082000E020461F
:104AE000C2B2B9B2074800F01CFCA4F1080004B23D
:104AF000002CEEDC00BF01E04FF0010A5046BDE89B
:104B0000F0870000260200202DE9F04705460C46FC
:104B100016464FF0000937B220B200281CDBA0195E
:104B2000102819DC20461FFA80F812E0082F01DD5A
:104B3000082000E03846C2B241460A4800F0DCFBDB
:104B400005F8010BA7F1080007B208F108001FFAE9
:104B500080F8002FEADC01E04FF001094846BDE88B
:104B6000F087000036020020F0B504460D46002014
:104B70002EB2002E2FDBAE18102E2CDC294613B1DE
:104B8000012B27D111E00DE0144E36F811603612DA
:104B900004F8016B114E16F8116004F8016B491C02
:104BA000561EB2B2002AEFDC14E010E014F8017BCC
:104BB0003E020A4F27F8116014F8016B37F81170A4
:104BC0003E43064F27F81160491C561EB2B2002A18
:104BD000ECDC00BF00E00120F0BD000060370020E9
:104BE00030B5034600200DB2002D15DB8D18102DB9
:104BF00012DC0C460DE0094D35F814502D1203F867
:104C0000015B064D15F8145003F8015B641C551E3A
:104C1000AAB2002AEFDC00E0012030BD060200202D
:104C200070B504460D46E1B20548FFF72AF900BF0A
:104C300080210348FFF759F80028F9D0204670BDBD
:104C40000014014008B5FCF7BDFE00200346064AEB
:104C5000411E00904FF47A70FCF7D2FF03E0FCF79E
:104C60005FFEFCF7A3FFFAE7D13E0008014621B141
:104C7000012904D0072906D103E0002005E0022025
:104C800003E0062001E0042000BF00BF704701469A
:104C9000092903DC01F13000C0B270470A2905DBA5
:104CA0000F2903DC01F13700C0B2F6E73020F4E74A
:104CB0000146302905DB392903DCA1F13000C0B2FF
:104CC0007047412905DB462903DCA1F13700C0B25A
:104CD000F6E7FF20F4E710B50246002003E012F8E3
:104CE000014B2318D8B20B00A1F10104A1B2F6D1F7
:104CF0004342D8B210BD000010B50248006880479A
:104D000010BD00005801002010B50248006880471F
:104D100010BD00005001002010B502480068804717
:104D200010BD00005401002070B502460C46FF255E
:104D3000FF2309E012F8010B80EA03010648405CFA
:104D400080EA05030548455C2000A4F10106B4B2E1
:104D5000F0D143EA052070BD825500088256000854
:104D600070B505460C4635B1012240F225510C487C
:104D7000FEF7F2FF05E0002240F225510848FEF759
:104D8000EBFF34B1012240F226610548FEF7E4FF53
:104D900005E0002240F226610148FEF7DDFF70BD0C
:104DA000004C004010B500210848FDF749FF0021E4
:104DB0000648FEF7A0F8002201210448FEF78CF80F
:104DC00001210248FDF739FF10BD00000018004026
:104DD00010B501210848FDF730FF012211460648B1
:104DE000FEF77AF800210448FEF785F80121024811
:104DF000FDF726FF10BD00000018004038B5002563
:104E0000684600F031F94248007800286ED0012849
:104E100002D0022879D146E0FFF7DAFF9DF80000C2
:104E20003A2805D100203B4908703B49088039E009
:104E30009DF800000D2803D102203549087031E0AB
:104E40009DF80000FFF734FF04463248007810B1A7
:104E5000012826D114E030480088FF280ADC20070A
:104E6000000E2E4909682C4A1288885401202949CD
:104E7000087016E0002026490870FFF793FF10E045
:104E800026490968244A128888180178214301704C
:104E900021480088401C2049088000201D490870D6
:104EA00000BF00BF31E09DF800001D49097888422D
:104EB00009D1FFF777FF002015490870012000F0A5
:104EC000C7F8054611E09DF800003A280AD10020F5
:104ED000104908701049088001200D490870FFF73B
:104EE00077FF02E000200A4908700EE09DF80000FC
:104EF0003A2809D1FFF76CFF0020074908800549CF
:104F0000087001200249087000BF00BF284638BD64
:104F1000F1010020FA010020F8010020F401002036
:104F20000302002010B509480078012802D00228A9
:104F300005D100E000BF00200449087000E000BF78
:104F400000BFFFF72FFF002010BD0000F10100207F
:104F500070B5002535480078052864D2DFE800F0F8
:104F60005E030E474F003A24204600F0E9F8022085
:104F70002E49087000202E49087054E02D48008802
:104F800000282DDD2A48007810B1012827D10DE036
:104F90002949096809780811FFF779FE0446204677
:104FA00000F0CEF801202249087018E02249096873
:104FB000097801F00F00FFF76AFE0446204600F072
:104FC000BFF81D480068401C1B49086000201849B4
:104FD000087018480088401E1649088000BF05E088
:104FE0000D2000F0ADF80320104908701BE01348B5
:104FF000007800F0A5F804200C49087013E00020A8
:105000000A490870032000F023F80546002101201A
:10501000FFF7A6FE00200549087004E000210120EA
:10502000FFF79EFE00BF00BF284670BDF0010020C4
:10503000FA01002000020020FC01002003020020F1
:10504000002002490870012070470000470200203C
:1050500001460120024A1070024801700120704789
:10506000470200204602002010B504460248FEF721
:1050700003FF2070012010BD004C0040F0B587B048
:1050800004460D4616461F4601210420FCF7E6FEA5
:1050900001210420FCF7E2FE0121C804FCF7EEFE2A
:1050A00008220A212448FCF7D9F808220B212248BB
:1050B000FCF7D4F84FF48060059002208DF81800BA
:1050C00000208DF81A0002208DF8190001208DF8BB
:1050D0001B0005A91848FCF779F84FF4006005900B
:1050E00005A91548FCF772F84FF4165000900020FF
:1050F000ADF80400ADF80600ADF80800ADF80C00FE
:105100000C20ADF80A0069460C48FEF74BFE012161
:105110000A48FEF7D5FD34208DF8100000208DF8E8
:1051200011008DF8120001208DF8130004A8FCF77F
:10513000E7FD012007B0F0BD00080240004C004030
:1051400010B5044621460248FEF79BFE012010BD23
:10515000004C004030B589B0044601214020FCF7E6
:105160008DFE4FF4A060FCF707FE2B208DF80400A5
:1051700003208DF805008DF8060001208DF807004A
:1051800001A8FCF7BDFD05A8FCF7B8FE40F6C31565
:105190000394ADF808500020ADF81000ADF80A00F7
:1051A00002A90748FDF7D6FE01210548FDF736FDA7
:1051B000012211460248FDF78FFE012009B030BDE3
:1051C0000018004038B500246846FFF74DFF1C4822
:1051D000007830B101280AD0022819D003282BD139
:1051E00002E0FFF7F5FD27E0FFF7F2FD24E00020E5
:1051F000144908809DF800200888411C114B198033
:1052000011490A5402200E490870FFF7E1FD13E02E
:105210000C480088FF2809DC9DF80020094908880F
:10522000411C084B198008490A5402E00320044934
:105230000870FFF7CDFD00BF00BF204638BD00005D
:1052400049020020520200208037002010B50024BF
:105250000D48007820B1022807D003280BD109E0BF
:105260000020FFF7F5FE044605E00120FFF7F0FE01
:10527000044600E000BF00BFFFF794FD0120024993
:105280000870204610BD00004902002010B500241F
:105290001648007810B1012824D104E00021012033
:1052A000FFF75EFD1EE01248008878B111490968D9
:1052B0000878FFF745FF0F480068401C0D4908605B
:1052C0000B480088401E0A4908800AE00320FFF7C7
:1052D000BFFE044600210120FFF742FD00200349E4
:1052E000087000BF00BF204610BD0000480200202B
:1052F000500200204C020020F0B503460C46154633
:10530000E208A4EBC20087B20120A840401E86B28A
:10531000995C501C185C41EA002139413140C8B207
:10532000F0BD2DE9F043044615461F46C808A1EB21
:10533000C0081FFA88FC07FA0CF81FFA88F74FF02C
:10534000010808FA05F8A8F101081FFA88F6A1EB90
:10535000C00806FA08F81FFA88F6225C00F1010876
:1053600014F8088042EA082222EA060848EA0702FE
:1053700022544FEA222900F1010804F80890BDE800
:10538000F083783BBC7BD593DE9BE6A3F7B308C4E0
:1053900011CC19D422DC2AE477659985AA95B29DAF
:1053A000BBA5C3ADD4BDDDC5E5CDEED5F6DD546FEF
:1053B000768F879F8FA798AFA0B7A9BFB1C7BACF85
:1053C000C2D7D3E7C337DD4FEE5FF66707780F80AC
:1053D00018882090299831A03AA817CA39EA4AFAC1
:1053E00053025C0A641275227E2A86328F3A9742F3
:1053F0002B9D44B54DBD5ECD66D56FDD77E580ED67
:1054000088F591FD9A05C12DE34DFC650D761E864C
:10541000278E389E48AE51B659BE6ACEE33D1F7600
:105420003086388E4196499E5AAE63B66BBE7CCEAE
:1054300084D6215C548C6DA476AC87BC8FC4A0D478
:10544000A9DCB1E4BAECC2F4E94C147525852D8DC4
:10545000369547A54FAD58B569C571CD7AD5D33FBF
:10546000F55F067017801F882890309839A041A8F2
:105470004AB05BC017223842414A525A5A62636AA4
:105480006B72747A7C82858A969A4DB477DC88EC4C
:1054900099FCA304B414BC1CC524CD2CD634E74419
:1054A000237C459C56AC5EB467BC78CC80D489DC48
:1054B00091E49AECA2F4AD0AC722D832E942F14A4B
:1054C000FA52025B0B63136B247B2D83F5CA0FE347
:1054D00028FB32033A0B43134B1B542365336D3BBC
:1054E0007643D4B2F6D207E318F320FB2A03320B3B
:1054F0003B13431B4C23542BA9D4D3FCE50CEE14D3
:10550000FF24072D1035183D2145294D3255F099BE
:1055100023CA34DA45EA56FA6002680A791A822206
:105520008A2A92328387AEAFBFBFD0CFD8D7E1DF10
:10553000E9E7F2EFFAF704000C08AC9CCEBCDFCC34
:10554000E7D4F8E401ED09F512FD1B05240D2C1537
:105550000842336A447A558A5D927FB287BA90C214
:10556000A1D2A9DAB2E24BD57F059015981DA125ED
:10557000B235BA3DC345CB4DD455E5658C35D075B4
:10558000F29500C1814001C0804101C0804100C14D
:10559000814001C0804100C1814000C1814001C003
:1055A000804101C0804100C1814000C1814001C0F3
:1055B000804100C1814001C0804101C0804100C1E3
:1055C000814001C0804100C1814000C1814001C0D3
:1055D000804100C1814001C0804101C0804100C1C3
:1055E000814000C1814001C0804101C0804100C1B3
:1055F000814001C0804100C1814000C1814001C0A3
:10560000804101C0804100C1814000C1814001C092
:10561000804100C1814001C0804101C0804100C182
:10562000814000C1814001C0804101C0804100C172
:10563000814001C0804100C1814000C1814001C062
:10564000804100C1814001C0804101C0804100C152
:10565000814001C0804100C1814000C1814001C042
:10566000804101C0804100C1814000C1814001C032
:10567000804100C1814001C0804101C0804100C122
:10568000814000C0C101C30302C2C60607C705C5E9
:10569000C404CC0C0DCD0FCFCE0E0ACACB0BC9095A
:1056A00008C8D81819D91BDBDA1A1EDEDF1FDD1D6A
:1056B0001CDC14D4D515D71716D6D21213D311D19A
:1056C000D010F03031F133F3F23236F6F737F535EA
:1056D00034F43CFCFD3DFF3F3EFEFA3A3BFB39F91A
:1056E000F83828E8E929EB2B2AEAEE2E2FEF2DEDEA
:1056F000EC2CE42425E527E7E62622E2E323E1215A
:1057000020E0A06061A163A3A26266A6A767A56569
:1057100064A46CACAD6DAF6F6EAEAA6A6BAB69A9D9
:10572000A86878B8B979BB7B7ABABE7E7FBF7DBDE9
:10573000BC7CB47475B577B7B67672B2B373B17119
:1057400070B05090915193535292965657975595E9
:1057500094549C5C5D9D5F9F9E5E5A9A9B5B995999
:105760005898884849894B8B8A4A4E8E8F4F8D4D69
:105770004C8C4484854587474686824243834181D9
:1057800080400000A45700080000002058020000DC
:10579000740200081858000858020020283A000037
:1057A000403F0008E1F2030320FFFF12011AFF024D
:1057B000790E091F3001BC2D0102030404250607E0
:1057C0000809022902321113C9453308041377442A
:1057D00033080313F343330810132F47330806131A
:1057E00061463308171A032832011399423308051A
:1057F0001AF110320F1A9F2029721A4738014013EC
:105800008037E22008091A5555027003600450FAE7
:085810001A05F7091610011238
:040000050800019D51
:00000001FF
